S01200005363686564756C6572322E7372656341
S11300000C942A000C943C000C943C000C943C008E
S11300100C943C000C943C000C943C000C943C006C
S11300200C943C000C943C000C949C020C943C00FA
S11300300C943C000C943C000C943C000C943C004C
S11300400C943C000C943C000C943C000C943C003C
S11300500C943C0011241FBECFE5D8E0DEBFCDBF19
S113006020E0A0E6B0E001C01D92A83AB207E1F793
S11300700E94DF020C9411030C940000CF93DF93D1
S113008000D0CDB7DEB71A82198244C029813A81E3
S1130090C901880F991F880F991F880F991F821B08
S11300A0930B8A599F4FFC011182108229813A8156
S11300B0C901880F991F880F991F880F991F821BE8
S11300C0930B88599F4FFC01108229813A81C90101
S11300D0880F991F880F991F880F991F821B930BF4
S11300E08E599F4FFC011182108229813A81C901E6
S11300F0880F991F880F991F880F991F821B930BD4
S11301008C599F4FFC011182108289819A8101963A
S11301109A83898389819A818A3091050CF4B6CFB8
S11301200F900F90DF91CF910895CF93DF9300D07C
S113013000D0CDB7DEB79A8389837C836B838091AB
S11301406000909161008A3091050CF045C02091C7
S1130150600030916100C901880F991F880F991FB1
S1130160880F991F821B930B8A599F4F2B813C81C7
S1130170FC01318320832091600030916100C9012A
S1130180880F991F880F991F880F991F821B930B43
S11301908C599F4F2B813C81FC013183208320911A
S11301A0600030916100C901880F991F880F991F61
S11301B0880F991F821B930B8E599F4F29813A8177
S11301C0FC0131832083809160009091610001964D
S11301D090936100809360000F900F900F900F90A8
S11301E0DF91CF910895CF93DF9300D0CDB7DEB7E1
S11301F01A821982E6C029813A81C901880F991FA0
S1130200880F991F880F991F821B930B8E599F4F3C
S1130210FC0180819181009709F4CEC029813A8143
S1130220C901880F991F880F991F880F991F821B76
S1130230930B8C599F4FFC0180819181AC014150FB
S1130240510929813A81C901880F991F880F991F83
S1130250880F991F821B930B8C599F4FFC0151836C
S1130260408329813A81C901880F991F880F991FFA
S1130270880F991F821B930B8C599F4FFC0180811F
S11302809181009709F054C029813A81C901880FEE
S1130290991F880F991F880F991F821B930B8A59E6
S11302A09F4FFC0180819181009709F441C029810D
S11302B03A81C901880F991F880F991F880F991FC8
S11302C0821B930B88599F4FFC018081482F4F5FFD
S11302D029813A81C901880F991F880F991F880FB6
S11302E0991F821B930B88599F4FFC0140832981DE
S11302F03A81C901880F991F880F991F880F991F88
S1130300821B930B8A599F4FFC01408151812981A3
S11303103A81C901880F991F880F991F880F991F67
S1130320821B930B8C599F4FFC015183408344C023
S113033029813A81C901880F991F880F991F880F55
S1130340991F821B930B8C599F4FFC0180819181D3
S1130350009791F529813A81C901880F991F880F67
S1130360991F880F991F821B930B8A599F4FFC0179
S113037080819181009701F529813A81C901880F13
S1130380991F880F991F880F991F821B930B8859F7
S11303909F4FFC018081482F4F5F29813A81C90119
S11303A0880F991F880F991F880F991F821B930B21
S11303B088599F4FFC01408389819A8101969A83D1
S11303C0898389819A818A3091050CF414CF0F9026
S11303D00F90DF91CF910895CF93DF9300D0CDB7E5
S11303E0DEB71A8219829DC029813A81C901880F1A
S11303F0991F880F991F880F991F821B930B885987
S11304009F4FFC018081882309F486C029813A81A9
S1130410C901880F991F880F991F880F991F821B84
S1130420930B8E599F4FFC0180819181FC010995AA
S113043029813A81C901880F991F880F991F880F54
S1130440991F821B930B88599F4FFC018081482F71
S1130450415029813A81C901880F991F880F991F3A
S1130460880F991F821B930B88599F4FFC0140836F
S113047029813A81C901880F991F880F991F880F14
S1130480991F821B930B88599F4FFC0180818823FD
S113049009F042C029813A81C901880F991F880F48
S11304A0991F880F991F821B930B8A599F4FFC0138
S11304B080819181009781F529813A81C901880F52
S11304C0991F880F991F880F991F821B930B8A59B4
S11304D09F4FFC011182108229813A81C901880F42
S11304E0991F880F991F880F991F821B930B8C5992
S11304F09F4FFC011182108229813A81C901880F22
S1130500991F880F991F880F991F821B930B8E596F
S11305109F4FFC011182108289819A8101969A83EE
S1130520898389819A818A3091050CF45DCF0F907B
S11305300F90DF91CF9108951F920F9200905F006A
S11305400F9211242F933F934F935F936F937F9355
S11305508F939F93AF93BF93EF93FF93CF93DF93C7
S1130560CDB7DEB70E94F300DF91CF91FF91EF91F9
S1130570BF91AF919F918F917F916F915F914F91B7
S11305803F912F910F9000925F000F901F9018954C
S1130590CF93DF93CDB7DEB78BE390E02FEFFC0171
S11305A02083DF91CF910895CF93DF93CDB7DEB74A
S11305B08BE390E0FC011082DF91CF910895CF93FB
S11305C0DF93CDB7DEB78CE590E02AEFFC01208302
S11305D083E590E023E530E0F90120812360FC010C
S11305E0208389E590E029E530E0F901208123604A
S11305F0FC0120838AE390E02FEFFC0120830E941A
S11306003E0062E070E088EC92E00E94950064E0B5
S113061070E084ED92E00E94950078940E94EC01D1
S1090620FDCFF894FFCFAA
S9030000FC
