:020000020000FC
:0607D000414243444500D4
:100000000C94020000E02AE030E050E049EF64E0A8
:100010000217E9F003955617B1F05395341769F0BC
:1000200000000000000000000000000000000000D0
:100030000000000000003395F1CF00000000000038
:1000400030E00C940B00000050E00C9408000FE529
:100050000DBF08E00EBF0E942F000C940200FF931A
:10006000EF93BF93AF931F938F939F93F7E0E0EDD0
:100070000E946400B0E0A0E6FF93EF93BF93AF93BC
:100080001F938F9385918C93A3951A95DCF78F918D
:100090001F91AF91BF91EF91FF918C911A95A10F94
:1000A0009C918C93A11B9C931A95A395103021F0E1
:1000B000103014F00C944D009F918F911F91AF91CF
:1000C000BF91EF91FF910895FF93EF9310E0859119
:0E00D000803011F01395FBCFEF91FF91089552
:00000001FF
